:100000008331302B000000007E14803120007F08F7
:10001000EA0091100130E3006308CF070A304F0275
:10002000031C132814282728CF016208031D192850
:100030001A2820287A0803191E281F282728202874
:100040008C31212480312000E2012728272801302B
:10005000E3006308D0075F305002031C30283128CA
:100060002B2BD00164306102031C372838283E282E
:100070006008031D3C283D28722A3E280130E30019
:100080006308E10765306102031C472848284C28B3
:100090007830E3006308E10007305F02031851285D
:1000A0005228DA285E08031D56285728DA285D08EA
:1000B000790603195C285D286328DF017908E300CD
:1000C0006308DD0063287908E300E4016308F000B9
:1000D0006408F1000730F2000030F3009531B725D5
:1000E000803185302000E5009030E600700865071B
:1000F000E7007108663DE8005F086707840068084C
:100100000318680A85000008E9006908DE0079081C
:10011000E300E4016308F0006408F1000730F20036
:100120000030F3009531B725803100302000E50024
:100130009030E60070086507E7007108663DE8004A
:100140005F086707840068080318680A85000008CC
:10015000E9006908F8000130E3006308DF07790867
:10016000E300E4016308F0006408F1000730F200E6
:100170000030F3009531B725803185302000E5004F
:100180009030E60070086507E7007108663DE800FA
:100190005F086707840068080318680A8500120072
:1001A000031DD328D428722A0730E3006308DF0038
:1001B000722A722A07305F02031CDF28E028722AA5
:1001C0005C0877060319E528E628ED28DB01DA014B
:1001D0007708E3006308DC00ED2859080319F128CB
:1001E000F228F7280130E3006308D800F728570801
:1001F0000319FB28FC284D2902304B06031901295D
:10020000022927297708E300E4016308F000640865
:10021000F1002330F2000030F3009531B725803132
:1002200045302000E5008530E60070086507E700EE
:100230007108663DE8005B086707840068080318DA
:10024000680A85000008E9006908F900B329770801
:10025000E300E4016308F0006408F1002330F200D9
:100260000030F3009531B72580315B302000E50088
:100270008330E60070086507E7007108663DE80016
:100280005B086707840068080318680A850000088F
:10029000E9006908F900B329B3295B080139E300D3
:1002A0006308D10051080319562957295D295B08B5
:1002B000FF3EE3006308D10062295B08013EE300D2
:1002C0006308D10002304B060319672968298D297C
:1002D0007708E300E4016308F0006408F1002330CC
:1002E000F2000030F3009531B72580314530200011
:1002F000E5008530E60070086507E7007108663D97
:10030000E80051086707840068080318680A850038
:100310000008E9006908F900B3297708E300E4015F
:100320006308F0006408F1002330F2000030F300AD
:100330009531B72580315B302000E5008330E60041
:1003400070086507E7007108663DE8005108670717
:10035000840068080318680A85000008E900690835
:10036000F900B329B3295B1CB629B729BF298E31FF
:10037000192680312000E3006308CB00BF2902303A
:100380004B060319C429C5291A2A0130E300630862
:10039000DB0723305B020318CE29CF29F629770823
:1003A000E300E4016308F0006408F1002330F20088
:1003B0000030F3009531B725803145302000E5004D
:1003C0008530E60070086507E7007108663DE800C3
:1003D0005B086707840068080318680A8500120034
:1003E000633A031DF429F5296F2AF62997310C2762
:1003F0008031003A0319FD29FE29062A0230200027
:100400004B02031C042A052A092A062A2000DA01C5
:10041000092A7A0803190D2A0E2A112A0130DB0253
:100420006F2ADA01DB010130E3006308D9006F2A8B
:100430006F2A6F2A0130E3006308DB0723305B0279
:100440000318232A242A4B2A7708E300E4016308CF
:10045000F0006408F1002330F2000030F300953121
:10046000B72580315B302000E5008330E60070085E
:100470006507E7007108663DE8005B0867078400D0
:1004800068080318680A85001200633A031D492AA8
:100490004A2A6F2A4B2A97310C278031003A0319D8
:1004A000522A532A5B2A023020004B02031C592A8D
:1004B0005A2A5E2A5B2A2000DA015E2A7A0803198A
:1004C000622A632A662A0130DB026F2ADA01DB0125
:1004D0000130E3006308D9006F2A6F2A6F2ADF0119
:1004E000722A722A06305E020318772A782A972A1F
:1004F000590803197C2A7D2A972A8C1E802A812A72
:10050000972A5608031D852A862A972A5808031910
:100510008A2A8B2A972A78082038E3006308F80093
:100520000130E3006308D500D901D801972A5508A6
:10053000031D9B2A9C2AAC2A8C1A9F2AA02AAC2A2B
:10054000C83056020318A52AA62AAC2A0130E300B7
:100550006308D607AC2AAC2A03305E020318B12A1E
:10056000B22ABD2A55080319B62AB72ABD2A780827
:10057000DF39E3006308F800D50102305602031C9E
:10058000C22AC32AE72A073056020318C82AC92AF2
:10059000E72A8C1ECC2ACD2AE72A7A08031DD12A05
:1005A000D22AE72A0730E3006308DF00DE01DB011F
:1005B00097310C278031003A031DDF2AE02AE22A16
:1005C0002000DA012000D601D901D801E72A8C1ECB
:1005D000EA2AEB2AFA2A073056020318F02AF12AEF
:1005E000F82A023056020318F62AF72AFA2AF82ABD
:1005F000D601FA2A7808E300E401E309E409E30AF2
:100600000319E40A54086307E50064080318640A40
:10061000E6006508660403190E2B0F2B132B01301F
:10062000E3006308E2007808E3006308D4000130C7
:10063000E3006308D3070130E3006308D2075E08D4
:100640000319232B242B272B0130DE02272B8B3180
:10065000702380312B2B20006A08FF007E100900D8
:100660008331322B8731FF278331EB0086308400C2
:1006700095308500BE3086000030870010309531FF
:1006800056258331F601F701F801F901FA0120300E
:100690008400003085004330953150258331A030EF
:1006A0008400003085001E309531502583317E1046
:1006B00020008C31E12C033402340334023403343F
:1006C0000234633400340034003400340034003425
:1006D000003400340034003400340034003400347A
:1006E000003400340034003400340034003400346A
:1006F0000034003400340034003400340134003459
:1007000001340034013400346334003400340034E4
:100710000034003400340034003400340034003439
:100720000034003400340034003400340034003429
:100730000034003400340034003400340034003419
:1007400000340334023403340234033402340134F9
:100750000034013400340134003401340034633493
:100760006334633463346334633463346334003434
:1007700000340034003400340034003400340034D9
:1007800000340034003400340434023404340234BD
:100790000434023463340034003400340034003450
:1007A00000340034003400340034003400340034A9
:1007B0000034003400340034003400340034003499
:1007C0000034003400340034003400340034063483
:1007D00012340634123406341234633400340034D4
:1007E0000034003400340034003400340034003469
:1007F0000034003400340034003400340034003459
:100800000034003400340034003400340034003448
:100810000034003404340234043402340434023426
:1008200006341234063412340634123406341234C8
:100830006334633463346334633463346334633400
:100840000034003400340034003400340034003408
:1008500000340034003400340034053402340534EC
:10086000023405340234633400340034003400347C
:1008700000340034003400340034003400340034D8
:1008800000340034003400340034003400340034C8
:1008900000340034003400340034003400340034B8
:1008A00007341234073412340734123463340034FA
:1008B0000034003400340034003400340034003498
:1008C0000034003400340034003400340034003488
:1008D0000034003400340034003400340034003478
:1008E0000034003400340534023405340234053455
:1008F0000234073412340734123407341234073404
:100900001234633463346334633463346334633480
:1009100063340034003400340034003400340034D4
:100920000034003400340034003400340D340E340C
:100930000D340E340F340F34103410340F340F34A0
:10094000103410340B340C340B340C340A340934A6
:100950000A3409340A34093463340034003400346E
:1009600000340034003400340034003400340034E7
:1009700000340A3409340A3409340D340D34103487
:1009800010340F340F34103410340F340F3410344B
:1009900010340F340F340D340E340D340E346334F0
:1009A00000340034003400340034003400340034A7
:1009B0000034003400340034073408340834083478
:1009C000633463346334633463346334633463346F
:1009D000633463346334633463346334633463345F
:1009E00063346334003400340034003400340034A1
:1009F000003400340034003400340034003408344F
:100A0000083408340834633463346334633463343F
:100A1000633463346334633463346334633463341E
:100A20006334633463346334633400340034003437
:100A30000034003400340034003400340034003416
:100A40000034003408340834083408346334633420
:100A500063346334633463346334633463346334DE
:100A600063346334633463346334633463346334CE
:100A700000340034003400340034003400340034D6
:100A800000340034003400340034033402340334BE
:100A90000234033402340334023463346334633481
:100AA000633463346334633463346334633463348E
:100AB000633463346334003400340034003400346D
:100AC0000034003400340034003400340034003486
:100AD00001340034013400346334633463346334E8
:100AE000633463346334633463346334633463344E
:100AF0006334633463346334633463340034003404
:100B00000034003400340034003400340034003445
:100B10000034003400340334023403340234033428
:100B2000023401340034013400340134003401341F
:100B30000034633463346334633463346334633460
:100B400063340034003400340034003400340034A2
:100B500000340034003400340034003404341134E0
:100B600004341134043411340434113463346334E0
:100B700063346334633463346334633463346334BD
:100B80006334633463346334003400340034003439
:100B900000340034003400340034003400340034B5
:100BA0000034063412340634123406341234063457
:100BB00012346334633463346334633463346334CE
:100BC00063346334633463346334633463340034D0
:100BD0000034003400340034003400340034003475
:100BE000003400340034003404341134043411343B
:100BF00004341134063412340634123406341234F8
:100C000006341234633463346334633463346334DA
:100C1000633463340034003400340034003400346E
:100C2000003400340034003400340034003405341F
:100C3000113405341134053411340534113463345E
:100C400063346334633463346334633463346334EC
:100C50006334633463346334633400340034003405
:100C600000340034003400340034003400340034E4
:100C70000034003407341234073412340734123489
:100C80000734123463346334633463346334633459
:100C9000633463346334633463346334633463349C
:100CA00000340034003400340034003400340034A4
:100CB0000034003400340034003405341134053479
:100CC0001134053411340734123407341234073424
:100CD000123407341234633463346334633463345A
:100CE000633463346334003400340034003400343B
:100CF0000034003400340034003400340034003454
:100D00000D340E340D340E340F340F3410341034CF
:100D10000F340F34103410340B340C340B340C34C7
:100D20000A3409340A3409340A3409346334003487
:100D30000034003400340034003400340034003413
:100D40000034003400340A3409340A3409340D34D0
:100D50000D34103410340F340F34103410340F3479
:100D60000F34103410340F340F340D340E340D346E
:100D70000E34633400340034003400340034003462
:100D800000340034003400340034003407340834B4
:100D90000834083463346334633463346334633451
:100DA000633463346334633463346334633463348B
:100DB0006334633463346334003400340034003407
:100DC0000034003400340034003400340034003483
:100DD000003408340834083408346334633463342A
:100DE000633463346334633463346334633463344B
:100DF000633463346334633463346334633400349E
:100E00000034003400340034003400340034003442
:100E10000034003400340034083408340834083412
:100E2000633463346334633463346334633463340A
:100E300063346334633463346334633463346334FA
:100E4000633463340034003400340034003400343C
:100E500000340034003400340034003400340130F5
:100E60002100CF004F082000B00730080319392FA8
:100E70003A2F4F2F02302100CF004F082000B00042
:100E800001302100CF004F082000B8004F2F4F2F16
:100E9000B9010E118E100E100C11B8014F2F330333
:100EA000031D532F542F562FB301562F3803031D04
:100EB0005A2F5B2FFE2F3108031D5F2F602FF12F5C
:100EC00039080319642F652FCE2F3508031D692FAC
:100ED0006A2FCE2F6B08031D6E2F6F2F772F780888
:100EE00021392100CF004F082000AE00A32F6B0353
:100EF000031D7B2F7C2F842F780822392100CF00FF
:100F00004F082000AE00A32F02306B06031D892F6F
:100F10008A2F922F780824392100CF004F08200013
:100F2000AE00A32F03306B06031D972F982FA32F1E
:100F3000780828392100CF004F082000AE00A32FE9
:100F4000A32FA32FA32F6003031DA72FA82FC82F04
:100F500001302100CF004F082000AD0705302D02E1
:100F60000318B32FB42FB92F2E0888316F20873183
:100F7000BE2F003088316F208731BE2F0C3020000B
:100F80002D02031CC42FC52FFE2FAD01FE2FFE2FF7
:100F90002E0888316F208731FE2FFE2F20003A085F
:100FA0000319D32FD42FEA2F3C08031DD82FD92F94
:100FB000FE2F57080319DD2FDE2FE32F2130883154
:100FC0006F208731FE2F223088316F208731FE2F2E
:100FD000FE2FFE2F003088316F208731FE2FFE2F2D
:100FE000FE2F780820392100CF004F082000AE00E6
:100FF0002E0888316F208731FE2FFE2F08006334C2
:1010000000002100CF01132820008C1E0828092889
:101010000F2801302100CE004E08CF0713282100F1
:10102000CF0113281328FA304F02031C182819285F
:1010300004281A2808002100D2004E08D0005008C9
:10104000D100222831009518262827282228151794
:1010500021005208FF3E310091007030920094014F
:101060006528322831009518362837283228382844
:1010700021005108860087010108310093000130EA
:101080002100D0005008D1070130D00050083100B5
:101090009107200003108B1F4E284F28502803145F
:1010A0003100151555309600AA3096009514582831
:1010B00095185B285C28582815112000031C61280E
:1010C000622865288B176528652801302100CF022A
:1010D0004F0A031D6C286D2832286E280800210055
:1010E000CE004E08031D752876289F284E1D7928AE
:1010F0007A287D2820000E147F2820000E10210061
:10110000CE1C83288428872820008E14892820005C
:101110008E1021004E1C8D288E28912820000E153F
:10112000932820000E112100CE1D972898289B2877
:1011300020000C15D22820000C11D228D2284E1DD8
:10114000A228A328A62820000E14A82820000E10EC
:101150002100CE1CAC28AD28B02820008E14B22867
:1011600020008E1021004E1CB628B728BA28200077
:101170000E15BC2820000E112100CE1DC028C1284C
:10118000C42820000C15C62820000C112100CE1EFA
:10119000CA28CB28CE2820000C16D22820000C12FA
:1011A000D228D228080020004908263E8600870160
:1011B00001082100CE004E08F6007608CE004E0849
:1011C000F7002000E0010B3076020318E828E92838
:1011D000F028FA0176082100CE004E08F7003329E6
:1011E0000B307602031CF528F62833290E307602E0
:1011F0000318FB28FC2833290C307606031D01292F
:1012000002290A2901302100CE004E082000E0000A
:10121000E1010A2976082100CE004E08F7000130CE
:10122000CE004E08FA000B307602031C182919294B
:1012300033290E30760203181E291F293329200076
:101240004908203E8600870104300102031C292939
:101250002A2933294908203E860087018101332944
:1012600033293329332907302100CE004E082000CE
:10127000DF00DE01D20108002100D7010330570250
:10128000031C432944294629B029B0295708063EA2
:101290009531762589312100D6005708263E8600F3
:1012A0008701560881005708263E860087010E30C8
:1012B0000102031C5C295D2963295708263E86002C
:1012C0008701810163295708033E953176258931CD
:1012D0002100D6005708233E86008701560881006A
:1012E0005708233E860087010103031978297929CD
:1012F00088295708233E86008701010803198129A0
:10130000822988295708233E860087018101882980
:101310005708003E9531762589312100D6005708BF
:10132000203E86008701560881005708203E86002F
:1013300087010F300102031C9E299F29A529570808
:10134000203E860087018101A5290130D60056087C
:10135000D70703305702031CAE29AF294629B0290D
:10136000080020004908263E860087010108210068
:10137000D8005808D900023020004906031DC129B1
:10138000C229DC290D30210059020318C829C929B6
:10139000D4290130D80020004908263E8600870164
:1013A000210058088107DC2920004908263E8600D4
:1013B00087018101DC29DC2920004903031DE12983
:1013C000E229FC290D30210059020318E829E929F6
:1013D000F4290130D80020004908263E8600870104
:1013E000210058088107FC2920004908263E860074
:1013F00087018101FC29FC2920004908031D012ADD
:10140000022A1C2A0D30210059020318082A092A31
:10141000142A0130D80020004908263E86008701A2
:101420002100580881071C2A20004908263E860012
:10143000870181011C2A1C2A01302100D80058088C
:101440002000B30097315C2789312000DA01883110
:10145000D320893108000930953176258A31210061
:10146000D9005908DA000930953176258A31003AD9
:10147000031D3B2A3C2A3F2A953196258A31973114
:10148000AD278A312130890B432A00009731AD27DF
:101490008A3104302100D9009130890B4D2AD90BB3
:1014A0004D2A2000B801AF018E1E572A582A5A2A09
:1014B000AF01AF0A0E1E5D2A5E2A652A02302100A6
:1014C000D90059082000AF00652A2F08263E860063
:1014D00087010B300102031C6E2A6F2AAF2A2F08E6
:1014E000263E860087010E3001020318782A792AE9
:1014F000AF2A9C2A9C2A0E15EB01AF2A8E140130CC
:101500002100D90059082000EB00AF2A0E14023048
:101510002100D90059082000EB00AF2A0C15033038
:101520002100D90059082000EB00AF2A0E118E10BF
:101530000E100C11AF2AAF2A2F08203E860087011B
:101540000108003A03197B2A013A03197E2A033A5B
:101550000319862A013A03198E2A962AAF2A89315D
:101560003C218A312130890BB32A000089313C218A
:101570008A3104302100D9009130890BBD2AD90B62
:10158000BD2A96313B268A318831D3208A31080022
:1015900020003208031DCD2ACE2A6F2B3503031DF0
:1015A000D22AD32A6F2B210091100130D80058087D
:1015B0002000B200E10101302100D80058082000CD
:1015C000B10096313B268A3101302100D80020003D
:1015D0004908203E86008701210058088107200025
:1015E0004908203E860087010F300102031CF92ABA
:1015F000FA2A002B4908203E860087018101002B32
:1016000000302100A7000030A6000030A500003007
:10161000A40097315C278A3197315C278A310030EA
:101620002100A7000030A6000030A5000030A40073
:101630002000DA01DF01D301DE01DB01D601D9018F
:10164000D80100302100A7000030A6000030A5001E
:101650000030A400542B640020000E118E100E10D8
:101660000C1101302100A4070030A53D0030A63D3B
:101670000030A73D2708031D482B2608031D482BD3
:1016800051302402C330253B031C472B482B542BDD
:101690000030A7000030A6000030A5000030A400F4
:1016A0002000AB01AB0A5A2B20008E19582B592B66
:1016B0002B2B5A2B2B03031D5E2B5F2B642BAB01B3
:1016C000963172268A31642B00302100A700003049
:1016D000A6000030A5000030A40091146F2B080074
:1016E00020008E1E742B752B872BC30104304702FC
:1016F00003187B2B7C2B812B0130F0007008C7076F
:10170000962B0130F0007008B700962B962BC7017E
:101710000430430203188D2B8E2B932B0130F000E5
:101720007008C307962BB701962B962B0E1E992B8C
:101730009A2BAC2BC101043045020318A02BA12B1E
:10174000A62B0130F0007008C507BB2B0130F0005C
:101750007008B600BB2BBB2BC50104304102031837
:10176000B22BB32BB82B0130F0007008C107BB2B94
:10177000B601BB2BBB2B8E1DBE2BBF2BCD2BC001AF
:10178000043044020318C52BC62BFF2B0130F00098
:101790007008C407FF2BFF2BFF2BC401043040024D
:1017A0000318D32BD42BD92B0130F0007008C007BD
:1017B000FF2BB20101302100A4070030A53D00300D
:1017C000A63D0030A73D2708031DF22B2608031D68
:1017D000F22B2508031DF22B65302402031CF12B8C
:1017E000F22BFF2B0030A7000030A6000030A50030
:1017F0000030A4002000B101FF2BFF2BFF2B2000A5
:101800008C1A032C042C112CC20109304602031837
:101810000A2C0B2C202C0130F0007008C607202C5D
:10182000202CC601073042020318172C182C1D2C3F
:101830000130F0007008C207202CB401202C202CAD
:1018400008000130F10071082000B00730080319CA
:101850002A2C2B2C3C2C0230F1007108B0000130F6
:10186000F1007108B8003C2C3C2CB9010E118E100F
:101870000E100C11B8013C2C3303031D402C412CDD
:10188000432CB301432C3803031D472C482CE02C78
:101890003108031D4C2C4D2CD42C39080319512C24
:1018A000522CB12C3508031D562C572CB12C6B082B
:1018B000031D5B2C5C2C622C78082139F100710827
:1018C000AE00882C6B03031D662C672C6D2C7808EA
:1018D0002239F1007108AE00882C02306B06031D1E
:1018E000722C732C792C78082439F1007108AE0021
:1018F000882C03306B06031D7E2C7F2C882C7808E7
:101900002839F1007108AE00882C882C882C882C8E
:101910006003031D8C2C8D2CAB2C0130F100710861
:10192000AD0705302D020318962C972C9C2C2E0801
:101930009631BE268C31A12C00309631BE268C31DA
:10194000A12C0C3020002D02031CA72CA82CE02C6D
:10195000AD01E02CE02C2E089631BE268C31E02C17
:10196000E02C20003A080319B62CB72CCD2C3C08EB
:10197000031DBB2CBC2CE02C57080319C02CC12C18
:10198000C62C21309631BE268C31E02C2230963187
:10199000BE268C31E02CE02CE02C00309631BE26A7
:1019A0008C31E02CE02CE02C78082039F100710813
:1019B0002000AE002E089631BE268C31E02CE02CA3
:1019C00008002100DC0195315C258C31EB302100D1
:1019D0008C00F8308E0020000E118E100E100C11AD
:1019E0009531D9258C312000B9010E118E100E10C1
:1019F0000C118A312B228C312000B901FF2C3A08BE
:101A0000031D032D042D062D6400062D96313B2663
:101A10008C318A31C8228C3120003108031D112DF0
:101A2000122DFF2C09304606031D172D182D282DC9
:101A30003408031D1C2D1D2D282D01302100DB0035
:101A40005B082000B400B90187312F278C31282D85
:101A50002000340803192D2D2E2DBB2D3A08031D0F
:101A6000322D332DBB2DD301352D8C1A382D392D28
:101A7000412DC7305302031C3E2D3F2D352D412DE6
:101A8000412D53082100DB005B08DD006400C730F6
:101A900021005D02031C4D2D4E2D8A2D200049088A
:101AA000263E860087018101BC0157080319592D84
:101AB0005B2D01305C2D00302100DB005B08200035
:101AC000D70057082100DB0020004908233E86008C
:101AD000870121005B0881000130DB005B082000EA
:101AE000BA0097315C278C3197315C278C31973164
:101AF0005C278C3187312F278C3100302100A700E3
:101B00000030A6000030A5000030A4008831D320AA
:101B10008C318A2DC73021005D020318902D912D44
:101B2000BB2D2000D301942D8C1E972D982DA02D18
:101B300002305302031C9D2D9E2D942DA02DA02D0F
:101B400002305302031CA52DA62DBB2D0130210010
:101B5000DB005B082000BC008931B1218C31200002
:101B6000D30101302100DB005B082000BA00DA015C
:101B7000BB2DBB2DBB2D0430200042020318C12D0C
:101B8000C22DC92D05305302031CC72DC82DDC2DD5
:101B9000C92D3B08031DCD2DCE2DDC2D3C0803198E
:101BA000D22DD32DDC2D01302100DB005B0820007D
:101BB000BB00D3010C16DC2D3B080319E02DE12DF1
:101BC000F02D0D305302031CE62DE72DF02DD3012F
:101BD00001302100DB005B082000BD000C12F02D5D
:101BE0003D080319F42DF52D052E8C1AF82DF92D2D
:101BF000FC2DD301C601FC2D0B305302031C012E1A
:101C0000022E052EBD01052E052E3408031D092EBA
:101C10000A2EFF2C01302100DB005B082000B900F8
:101C2000BC01BB01BA01FF2CFF2CFF2CFF2C833120
:101C3000302B2000AF01370803191F2E202E232E32
:101C4000AF01AF0A232E36080319272E282E9D2F09
:101C50000230F0007008AF009D2F9D2FEB01AB2FDD
:101C60000130F0007008EB00AB2F0230F00070087C
:101C7000EB00AB2F0330F0007008EB00AB2F4E2EC3
:101C8000EB010130F0007008DA00AB2F0130F000FA
:101C90007008EB00DA01AB2FAB2FAB2F5A08003ADC
:101CA0000319402E013A0319462EAB2FAB2F662E97
:101CB000EB010130F0007008DA00AB2F0230F000C9
:101CC0007008EB00DA01AB2FAB2FAB2F5A08003AAC
:101CD0000319582E013A03195E2EAB2FAB2F7E2E1F
:101CE0000330F0007008EB000130F0007008DA00FB
:101CF000AB2FEB01DA01AB2FAB2FAB2F5A08003A19
:101D00000319702E013A0319792EAB2FAB2F992EA0
:101D10000130F0007008EB000130F0007008DA00CC
:101D2000AB2F0230F0007008EB00DA01AB2FAB2FC5
:101D3000AB2F5A08003A0319882E013A0319912E45
:101D4000AB2FAB2FB42E0330F0007008EB00013046
:101D5000F0007008DA00AB2F0130F0007008EB00E3
:101D6000DA01AB2FAB2FAB2F5A08003A0319A32E81
:101D7000013A0319AC2EAB2FAB2FCF2E0330F0005E
:101D80007008EB000130F0007008DA00AB2F023071
:101D9000F0007008EB00DA01AB2FAB2FAB2F5A0825
:101DA000003A0319BE2E013A0319C72EAB2FAB2FF1
:101DB000F02E0130F0007008EB000130F0007008E8
:101DC000DA00AB2F0230F0007008EB000230F000B8
:101DD0007008DA00AB2FEB01DA01AB2FAB2FAB2F82
:101DE0005A08003A0319D92E013A0319E22E033A90
:101DF0000319EB2EAB2FAB2F142F0130F00070081E
:101E0000EB000130F0007008DA00AB2F0330F00077
:101E10007008EB000230F0007008DA00AB2FEB0125
:101E2000DA01AB2FAB2FAB2F5A08003A0319FD2E66
:101E3000013A0319062F033A03190F2FAB2FAB2FCB
:101E4000382F0230F0007008EB000130F00070080D
:101E5000DA00AB2F0330F0007008EB000230F00026
:101E60007008DA00AB2FEB01DA01AB2FAB2FAB2FF1
:101E70005A08003A0319212F013A03192A2F033A6D
:101E80000319332FAB2FAB2F5F2F0230F0007008F8
:101E9000EB000130F0007008DA00AB2F0330F000E7
:101EA0007008EB000230F0007008DA00AB2F013050
:101EB000F0007008EB00DA01AB2FAB2FAB2F5A0804
:101EC000003A0319452F013A03194E2F033A03191B
:101ED000572FAB2FAB2F8C2FEB010130F000700888
:101EE000DA00AB2F0130F0007008EB000230F00098
:101EF0007008DA00AB2F0230F0007008EB000330FE
:101F0000F0007008DA00AB2F0330F0007008EB002F
:101F1000DA01AB2FAB2FAB2F5A08003A03196C2F05
:101F2000013A0319722F033A03197B2F013A03195F
:101F3000842FAB2FAB2FAB2FAB2F2F08203E86006B
:101F40008701010884000F3004020318AB2F913180
:101F500004350A3E82002F08203E860087010108D2
:101F60002F08203E86008701043001020318B92F94
:101F7000BA2FBC2FAC01FD2F2F08203E8600870111
:101F800004300102031CC52FC62FD32F2F08203E7B
:101F9000860087010A3001020318CF2FD02FD32FDC
:101FA000AC01AC0AFD2F2F08203E860087010A30C5
:101FB0000102031CDC2FDD2FEC2F2F08203E8600B2
:101FC00087010E3001020318E62FE72FEC2F0230B5
:101FD000F0007008AC00FD2F2F08203E860087011E
:101FE0000E300106031DF52FF62FFD2F0330F000F4
:101FF0007008AC00FD2FFD2FFD2F2C08FF2F0800CF
:1020000000340034003400340034003400340F3421
:102010000F340F340F340F340F340F3400340034C6
:10202000003400340034003400340F340F340F34E3
:102030000F340F340F340F340F3400340F340034A6
:102040000F3400340F340F3400340F3400340F34A5
:1020500000340F340F3400340F34003400340034B3
:102060000F340F3400340F3400340F3400340F3485
:102070000F340F340F340F340F340F340F34003457
:102080000034003400340034003400340F340F3492
:102090000F340F340F340F340F340F3400340F3437
:1020A00000340F3400340F34003400340034003472
:1020B0000034003400340F3400340F3400340F3453
:1020C00000340F3400340034003400340034003461
:1020D00000340F340F340F340F340F340F340F34F7
:1020E0000034003400340034003400340034003450
:1020F0000034003400340034003400340034003440
:10210000003400340034003400340E341034003411
:1021100000340034003400340A340A34003400340B
:1021200000340034003419340E34093400340034DF
:1021300000340034103410340034003400340034DF
:1021400000341034083410340034003400340034C7
:102150000B3404340B3404340B34003400340A34AC
:1021600005340A34003400340034003407340334B6
:10217000063403340634003400340A340A34063496
:10218000003400340034003408340934003400349E
:10219000003400340034083408340034003400348F
:1021A0000034003403340334073400340034003482
:1021B0000034073408340034003400340034003470
:1021C00003340334033403340334033407340D3449
:1021D0000D34003400340034003400340434073447
:1021E0000034003400340034003404340634003445
:1021F0000034003400340034193410340034003416
:102200000034003400340E340C3400340034003414
:10221000003400348E312E2E8E31302E8E31352EFC
:102220008E313A2E8E314E2E8E31662E8E317E2E8E
:102230008E31992E8E31B42E8E31CF2E8E31F02EDE
:102240008F31142F8F31382F8F315F2F8F318C2F9B
:10225000000000000000000000000000000000007E
:10226000000000000000000000000000000000006E
:10227000000000000000000000000000000000005E
:10228000000000000000000000000000000000004E
:102AA000640080010131890B512D0034FE001200B9
:102AB0001E00FE0B572D003432001F08F039043879
:102AC0009F0019088F3960389900F0309905080087
:102AD0002100D500D330D4005408CE00CF01CF0A56
:102AE000550888311B209531752D08002100D40030
:102AF0005408D3005308CE00CF01CF0AD530963109
:102B00000926953121005508852D0800013401342E
:102B10000134013402340234023402340234023407
:102B20000334033403340434003401342000A60198
:102B3000A701A80101302100D80058082000A300F7
:102B400001302100D80058082000A40001302100E5
:102B5000D80058082000A50097315C279531210046
:102B6000D301D30A09309531682595310800F40165
:102B7000F501BA2D701CBD2DBE2DC22D7208F407B3
:102B80007308F53D0130F235F30D890BC32D01308B
:102B9000F136F00C890BC82D70087104031DD12D7E
:102BA000D22DBA2DD32D7508F1007408F000D82D60
:102BB000080017302100970020008C0122008C01B2
:102BC00023008C0120008E0122008E0123008E0143
:102BD000EB3021008C00F8308E0020000E118E109A
:102BE0000E100C1121008E150E168E168C1620005C
:102BF000B901640088310120953120001F081F159C
:102C00009F141F100C309E00210091140B178B177E
:102C100008002100D2005208D0005008D100102E28
:102C200031009518142E152E102E151721004E0860
:102C30003100910070309200312E310015141308CC
:102C40002100D00051088600870150088100013022
:102C5000D0005008D1070130D00050083100910752
:102C6000312E01302100CF024F0A031D382E392E9C
:102C70001D2E3A2E08002000C90137080319412EE5
:102C8000422E492E01302100CF004F082000C900FC
:102C9000492E360803194D2E4E2E542E0230210097
:102CA000CF004F082000C900480849060319592ED3
:102CB0005A2E612EE1018831D32096312000B001D7
:102CC000612E4908233E8600870101082100CF00BC
:102CD0004F082000D70049082100CF004F082000EE
:102CE000C80008002000E10196313B2696310030F3
:102CF0002100A7000030A6000030A5000030A4008D
:102D000020004908203E8600870181010E118E10A7
:102D10000E100C11982E640020000E1501302100B9
:102D2000A4070030A53D0030A63D0030A73D982EF9
:102D300021002708031DA72E2608031DA72E1030EB
:102D400024022730253B031CA62EA72E8B2EA82E4F
:102D50000030A7000030A6000030A5000030A4001D
:102D600097315C27963100302100A7000030A60083
:102D70000030A5000030A40064000800F0007008D6
:102D8000031DC32EC42EE42E701DC72EC82ECB2EBD
:102D900020000E14CD2E20000E10F01CD02ED12EAF
:102DA000D32E8E14D42E8E10701CD72ED82EDA2E41
:102DB0000E15DB2E0E11F01DDE2EDF2EE12E0C1572
:102DC0000B2F0C110B2F0B2F701DE72EE82EEB2E67
:102DD00020000E14ED2E20000E10F01CF02EF12E0F
:102DE000F32E8E14F42E8E10701CF72EF82EFA2E61
:102DF0000E15FB2E0E11F01DFE2EFF2E012F0C15B1
:102E0000022F0C11F01E052F062F082F0C160B2F6A
:102E10000C120B2F0B2F08002000A901AA018E1EF7
:102E2000122F132F182F0130A9000030AA00182FDD
:102E30000E1E1B2F1C2F212F0230A9000030AA00CC
:102E4000212F2908263E860087010230010603193A
:102E50002A2F2B2F542F2908263E86008701053064
:102E600001060319342F352F542F2908263E8600DA
:102E700087010830010603193E2F3F2F542F2908E0
:102E8000263E86008701093001060319482F492F85
:102E9000542F2908263E860087010A300106031DAB
:102EA000522F532F582F542F01305B2F5B2F5B2F46
:102EB00000305B2F5B2F0800FF302100D600560842
:102EC000D3000A309531682597312100D7010330AE
:102ED0005702031C6C2F6D2F6F2FA42FA42F5708A0
:102EE000263E860087010108D6005608D300570801
:102EF000063E95316825973121005708233E86000C
:102F000087010108D6005608D3005708033E9531C3
:102F10006825973121005708203E86008701010867
:102F2000D6005608D3005708003E953168259731E2
:102F300001302100D6005608D70703305702031C82
:102F4000A22FA32F6F2FA42FA630D6005608D30090
:102F50000A3095316825973108002100D7010330E8
:102F60005702031CB42FB52FB72FFF2FFF2F570881
:102F7000063E9531762597312100D6005708263E2A
:102F800086008701560881005708263E8600870183
:102F90000E300102031CCD2FCE2FD42F5708263E12
:102FA000860087018101D42F5708003E9531762590
:102FB00097312100D6005708203E86008701560829
:102FC00081005708203E860087010F300102031C54
:102FD000EA2FEB2FF42F0430D6005708203E86004E
:102FE000870156088100F42F0130D6005608D70714
:102FF00003305702031CFD2FFE2FB72FFF2F0800B1
:1030000000000000000000000000000000000000C0
:1030100000000000000000000000000000000000B0
:1030200000000000000000000000000000000000A0
:103030000000000000000000000000000000000090
:020000040001F9
:04000E00FCFFFEFFF6
:02001400FCFFEF
:10E000000000000000000000000000000000000010
:06E010000000000000000A
:00000001FF
